:020000001C29B9
:0E000600D201D101D001D801D3010030080091
:100014005B15DB1F14280130D300D201D101D001BC
:08002400DA0DD20CFF300800D8
:08002C00DA1FD21300300800B6
:10003400A0015208031D2F285108D2005008D100F6
:10004400D001A0155208031D2F285108D200D10158
:10005400A0112016520803193D282008D302031DBD
:10006400031C41280310D21B4528D00DD10DD20DFD
:10007400D30B352841280130DC0003204828023006
:0E008400DC000A2048280430DC0016200800AA
:10009200DB14DB1F5328FF30D300D200D100D00085
:0800A200DA0DD20CFF3008005A
:1000AA0083120313DA015308031D5A145708031D58
:1000BA00DA145A080319A128033A03196C285A18A2
:1000CA006928D61F9F289D28D21F9D289F2852083D
:1000DA008039DA00D21356088039D6135A06031922
:1000EA007A285A0803199D289F285708530203198A
:1000FA008128031C95289928560852020319882832
:10010A00031C952899285508510203198F28031CA6
:10011A0095289928540850020319A12803189928E8
:10012A00DA0803199F289D28DA0803199D289F28B1
:10013A00031408000310080003140315080008003C
:10014A0083120313DB015308031D57080319FC2804
:10015A0052085606DA005708D3077E30031CB9281E
:10016A00D3020318FF28BC28D302031C0229520811
:10017A00D8005108DC005008DD00D817D617031044
:10018A00D201D101D0011830A0005D1CD628540834
:10019A00D00755080318550FD10756080318560FEC
:1001AA00D207D20CD10CD00CD80CDC0CDD0C03100D
:1001BA00A00BCA28D21BE628D80DD00DD10DD20D1E
:1001CA00D3035B1B501CF828D81FF828D00A031940
:1001DA00D10A0319D20A031DF828D20CD10CD00C6B
:1001EA00D30A0319FF28DA1FD21300300429013079
:1001FA000320042902304920042904300A2000007F
:02020A000800EA
:10020C00831203135008D8005108D000D101D20139
:10021C00D301DB01DC019630D300DA015008D100A8
:0C022C005808D000D801D2011A200800A8
:10023800FF30831685004130DC00EE30DD00DD0B39
:100248002329DC0B2329000085010514831285016D
:100258004130DC00EE30DD00DD0B3029DC0B3029CD
:100268000000213083169F00813083129F000230E6
:10027800DC004B30DD00DD0B3F29DC0B3F299F14F0
:100288000230DC004B30DD00DD0B4829DC0B48294F
:100298009F1C4F294C2903301E05D3005308D10059
:1002A800D00183161E08D0070318D10A0621523040
:1002B800D4004930D5001D30D6007730D700A520AE
:1002C8005008D4005108D5005208D6005308D7006A
:1002D8003330D0003330D1007330D2008030D300B7
:1002E8005520013003180030D000500803197E292A
:0A02F80085147F2985104329802911
:02400E00F4318B
:00000001FF
